:020000000130CD
:10003000113C1157116411E131310130E4F530F513
:1000400031F532F533F534F535F536F537C3920A27
:10005000920B920C920D22900300E493516CA360DA
:100060000280F72231E731BB200C70200B6D5179F3
:10007000540FF53031E731BB200A06200B1E200C4F
:100080005A5179540FF537E53075F00AA42537F544
:100090003001A0F537E532B40041E5375179F5324A
:1000A00031E731BB200BEC200C315179540FF53185
:1000B00031E731BB200A06200B21200C1A5179545C
:1000C0000FF537E53175F00AA42537F53131E73101
:1000D000BB200A07200B04517901E0515702003080
:1000E00022E5308531F0A832B82B0825F0F53375BC
:1000F000362B22B82D1295F04006F53375362B229B
:10010000F404F53375362D22B82A0AA4F53385F0A8
:100110003475362B22B82FC3E53160BFE53085F04A
:100120003784F533740AA48537F084F53575362B9A
:100130002279007A007B007C00E536B42D025179EB
:10014000E53375F00A84A9F075F00A84AAF0FBE59E
:1001500034B4000302017774062975F00A84A9F00B
:0301600024052A49
:1001630075F00A84AAF024022B75F00A84ABF02CF4
:10017300FCD534E0EC7004C20D218424305179D2D3
:100183000DEB7003300D0624305179D20DEA700364
:10019300300D0624305179D20DE9700024305179A5
:1001A300E535B4000221B4742E5179E5352430517C
:1001B3007941984198419822B42B0221E0B42D0251
:1001C30021E0B42A0221E0B42F0221E0B43D07C2AA
:1001D3000AC20BD20C22D20AC20BC20C22C20AD20E
:1001E3000BC20C227590FF75B000E590540FB40F4D
:1001F300F612028BE590540FB40F0280F412028BB7
:10020300E590540FB40F0280E875B0FEE590540FEB
:10021300B40F2175B0FDE590540FB40F1C75B0FBFE
:10022300E590540FB40F1775B0F7E590540FB40F62
:10023300120201F4900306800D90030A80089003D4
:100243000E8003900312135003A380FAE49360011A
:10025300220200305186900316E4935179518BA307
:10026300600280F55198518622F5A0C280C281D2E6
:1002730082518BC28222F5A0D280C281D282518B5D
:10028300C282227401516C22C001783279FFD9FEF7
:04029300D8FAD001C4
:1002970022C001C002780779BE7AFFDAFED9FAD800
:0602A700F6D001D0022296
:10030000380F010680003738392F3435362A31321C
:0E031000332D00303D2B4552524F522121001B
:00000001FF
